:1010000000000420B5120000DD120000DF12000015
:10101000E1120000E3120000E512000000000000F1
:10102000000000000000000000000000E7120000C7
:10103000E912000000000000EB120000ED120000B9
:10104000EF120000EF120000EF120000EF1200009C
:10105000EF120000EF120000EF120000EF1200008C
:10106000EF120000EF120000EF120000EF1200007C
:10107000EF120000EF120000EF120000EF1200006C
:10108000EF120000EF120000EF120000EF1200005C
:10109000EF120000EF120000EF120000EF1200004C
:1010A000EF120000EF120000EF120000EF1200003C
:1010B000EF120000EF12000000000000000000002E
:1010C000EF120000EF120000EF120000EF1200001C
:1010D000EF120000EF120000EF120000EF1200000C
:1010E000EF120000EF120000EF12000000000000FD
:1010F00000000000EF12000000000000EF120000EE
:1011000000000000000000000000000000000000DF
:1011100000000000000000000000000000000000CF
:1011200000000000000000000000000000000000BF
:1011300000000000000000000000000000000000AF
:10114000000000000000000000000000000000009F
:10115000000000000000000000000000000000008F
:10116000000000000000000000000000000000007F
:10117000000000000000000000000000000000006F
:10118000000000000000000000000000000000005F
:10119000000000000000000000000000000000004F
:1011A000000000000000000000000000000000003F
:1011B000000000000000000000000000000000002F
:1011C000000000000000000000000000000000001F
:1011D000000000000000000000000000000000000F
:1011E00000000000000000000000000000000000FF
:1011F00000000000000000000000000000000000EF
:1012000010B5054C237833B9044B13B10448AFF340
:1012100000800123237010BD740000200000000036
:101220000017000008B5034B1BB103490348AFF397
:10123000008008BD000000007800002000170000BA
:10124000154B002B08BF134B9D46A3F5803A002198
:101250008B460F461348144A121A00F02DFA0F4B12
:10126000002B00D098470E4B002B00D09847002051
:10127000002104000D000D48002802D00C48AFF3F7
:10128000008000F0F5F92000290000F0B5F800F02A
:10129000DBF900BF0000080000000420000000008F
:1012A00000000000740000209000002000000000FA
:1012B000000000000649074A074B9B1A03DD043B68
:1012C000C858D050FBDC00F0AFF8FFF7B9FF0000C2
:1012D0000C1700000800002074000020FEE7FEE765
:1012E000FEE7FEE7FEE7FEE7FEE7FEE7FEE7FEE7D6
:1012F0000A4B185C1F288ABF09494FF0A04100F033
:101300001F00D1F804350122824022EA0300134075
:10131000C1F80805C1F80C35704700BFE41600009D
:1013200000030050C30706D4830742BF2E4B0C2294
:10133000C3F81827704770B44FF08043D3F8403695
:10134000DA0722D44FF0A0432749032240264FF466
:1013500080754FF40074C3F81827C3F82027C1F82C
:101360002427C3F83027C3F808654FF48052C3F828
:101370000855C1F808458107C3F8082503D51A4B5D
:101380000C22C3F8182770BC70474FF01023D3F815
:10139000043303F00703072BD4D1144B0122C3F805
:1013A0000425D3F80024002AFBD04FF010210020A0
:1013B000D1F804230D4C22F0070242F00402C1F8D8
:1013C0000423C3F80405D4F80034002BFBD0BFF38A
:1013D0004F8F0749074BCA6802F4E0621343CB60A2
:1013E000BFF34F8F00BFFDE70003005000E0014056
:1013F00000ED00E00400FA0570B50120094DFFF78B
:1014000091FF45F0010500263046FFF771FF4FF4CC
:10141000FA744FF47A40A847013CFAD10136042E01
:10142000F2D1F0E7F016000010B4754B1B68082BE2
:101430001CD0744AD2F8883043F47003C2F8883064
:10144000BFF34F8FBFF36F8F4FF01023D3F80022FD
:10145000002AC0F2A380D3F80432002BC0F29E8091
:10146000694B6A4A1A605DF8044B70474FF080413F
:101470004FF080520020C1F80C01654BC1F81001FB
:10148000C1F83805D2F80414C3F82015D2F80814AE
:10149000C3F82415D2F80C14C3F82815D2F8101488
:1014A000C3F82C15D2F81414C3F83015D2F8181458
:1014B000C3F83415D2F81C14C3F84015D2F8201420
:1014C000C3F84415D2F82414C3F84815D2F82814E8
:1014D000C3F84C15D2F82C14C3F85015D2F83014B8
:1014E000C3F85415D2F83414C3F86015D2F8381480
:1014F000C3F86415D2F83C04C3F868054549D2F82E
:101500004004C3F86C050968D2F84424C3F8702578
:10151000032937D8404B5B5C13B1404B404A1A60FB
:10152000404B5B5C63B1364B3F491B68394AFB203B
:10153000C1F81805082B11687FF47BAF032921D867
:101540003A4B5B5C93B13A483A4B2D4C02681B68AE
:101550002468304922F00F0203F00F031343082CD4
:10156000096803607FF465AF03290BD8324B5B5CDD
:1015700043B1234B314A1B684FF40071082B1160B3
:101580007FF457AF4FF08043D3F80024D2077FF5A4
:1015900050AF6FF00102C3F800244AE7284A012344
:1015A000C2F80435D2F80034002BFBD04FF01023E2
:1015B0001221234AC3F80012D2F80034002BFBD0CA
:1015C0004FF0102312211E4AC3F80412D2F800343F
:1015D000002BFBD000231A49C2F80435D1F800349F
:1015E000002BFBD0BFF34F8F0649164BCA6802F49D
:1015F000E0621343CB60BFF34F8F00BFFDE700BF36
:101600003001001000ED00E0080000200090D00341
:1016100000C0004034010010F81600008C56004055
:1016200048810300F816000000F00040F8160000A2
:10163000E40E004058020010F816000040960240E8
:1016400000E001400400FA0508B5074B044613B159
:101650000021AFF30080054B1868836A03B19847F7
:10166000204600F031F800BF00000000FC1600002A
:1016700070B50D4D0D4C641BA4100026A64209D177
:101680000B4D0C4C00F022F8641BA4100026A6425F
:1016900005D170BD55F8043B98470136EEE755F883
:1016A000043B98470136F2E76C0000206C000020F4
:1016B0006C0000207000002002440346934200D1D9
:1016C000704703F8011BF9E7FEE700BFF8B500BF5C
:1016D000F8BC08BC9E467047F8B500BFF8BC08BC13
:1016E0009E4670470608290C00000000000000001C
:1016F0000338FDD870470000010000000C000020F6
:0417000000000000E5
:081704003CFBFF7F0100000027
:10170C000090D0030000000000000000000000006A
:10171C0000000000000000000000000000000000BD
:10172C0000000000000000000000000000000000AD
:10173C00000000000000000000000000000000009D
:10174C00000000000000000000000000000000008D
:10175C00000000000000000000000000000000007D
:0C176C0000000000251200000112000027
:04000003000012B532
:00000001FF
